:020000040000FA
:100000000C9462000C948A000C948A000C948A0070
:100010000C948A000C948A000C948A000C948A0038
:100020000C948A000C948A000C948A000C948A0028
:100030000C948A000C948A000C948A000C948A0018
:100040000C948D060C948A000C948A000C948A00FF
:100050000C948A000C948A000C948A000C948A00F8
:100060000C94D7060C948A0000000000240027009E
:100070002A000000000023002600290000000000E4
:10008000250028002B0004040404040404040202D4
:100090000202020203030303030301020408102007
:1000A0004080010204081020010204081020000012
:1000B0000008000201000003040700000000000027
:1000C0000000F20711241FBECFEFD8E0DEBFCDBF86
:1000D00022E0A0E5B1E001C01D92A53DB207E1F725
:1000E00011E0A0E0B1E0E8E9F1E202C005900D9274
:1000F000A035B107D9F710E0C2E6D0E004C02197DF
:10010000FE010E94020CC136D107C9F70E941208F5
:100110000C94CA100C940000833081F028F48130D4
:1001200099F08230A9F008958730A9F08830C9F09D
:100130008430B1F4809180008F7D03C08091800075
:100140008F7780938000089584B58F7784BD08955C
:1001500084B58F7DFBCF8091B0008F778093B00006
:1001600008958091B0008F7DF9CF1F93CF93DF93D7
:10017000282F30E0F901E255FF4F8491F901E6564E
:10018000FF4FD491F901EA57FF4FC491CC23A9F056
:10019000162F81110E948C00EC2FF0E0EE0FFF1F54
:1001A000E458FF4FA591B4918FB7F894EC911111D9
:1001B00008C0D095DE23DC938FBFDF91CF911F91D4
:1001C0000895DE2BF8CF3FB7F8948091B302909159
:1001D000B402A091B502B091B60226B5A89B05C0A5
:1001E0002F3F19F00196A11DB11D3FBFBA2FA92FB6
:1001F000982F8827BC01CD01620F711D811D911DB3
:1002000042E0660F771F881F991F4A95D1F708951E
:100210008F929F92AF92BF92CF92DF92EF92FF9216
:100220004B015C010E94E3006B017C010E94E30032
:100230006C197D098E099F09683E734081059105FF
:10024000A8F321E0821A9108A108B10888EEC80E2F
:1002500083E0D81EE11CF11C81149104A104B104B7
:1002600029F7FF90EF90DF90CF90BF90AF909F90D5
:100270008F900895FC01248135816217730720F463
:1002800080819181009729F41092E50185EE91E03B
:100290000895860F971F0895AF92BF92CF92DF9275
:1002A000EF92FF920F931F93CF93DF936C017B012B
:1002B0008B01040F151FEB015E01AE18BF08C017BC
:1002C000D10759F06991D601ED91FC910190F0812F
:1002D000E02DC6010995892B79F7C501DF91CF91F2
:1002E0001F910F91FF90EF90DF90CF90BF90AF9054
:1002F000089508951F93CF93DF93C1E0C0935101F8
:10030000882399F1D091B8001091BA008091BC0077
:100310008A7B8093BC0060E082E10E94B50060E0CF
:1003200083E10E94B5001092BB01C093BA01109204
:10033000950161E082E10E94B50061E083E10E94E5
:10034000B5008091B9008E7F8093B9008091B9008B
:100350008D7F8093B90088E48093B80085E4809312
:10036000BC001093BA00D093B800DF91CF911F91D9
:10037000089520917201260F3327331F2132310552
:10038000ECF42091BB01FC0190E080E0243069F0A6
:1003900082E00895A09172012191AC014E5A5E4F06
:1003A000A40FB52FB11D2C930196861798F3809159
:1003B0007201680F6093720180E0089581E00895F2
:1003C00008958FEF9FEF08958FEF9FEF089580912D
:1003D000500190E09195819591090895CF92DF9217
:1003E000EF92FF920F931F93CF93DF937C01CB018A
:1003F0008A012091C101222389F0EB016B01C40E17
:10040000D51ECC15DD0569F06991D701ED91FC9100
:100410000190F081E02DC7010995F3CF642F0E9470
:10042000B901C801DF91CF911F910F91FF90EF901B
:10043000DF90CF900895CF93DF931F92CDB7DEB7B3
:1004400069832091C1012223F9F02091E401203237
:1004500058F021E030E0FC013383228390E080E01B
:100460000F90DF91CF9108958091C201E82FF0E0C5
:10047000ED53FE4F998190838F5F8093C2018093EB
:10048000E40181E090E0ECCF61E0CE0101960E94B2
:10049000B901F7CFCF92DF92EF92FF920F931F93A4
:1004A000CF93DF93FC01C48121E02093C101C0936D
:1004B000E3011092C2011092E4018385682B87EB5F
:1004C00092E00E941B02D091E401D13208F092C068
:1004D0000E94E3006B017C018091BB01811165C02A
:1004E00082E08093BB0181E08093BA018FEF80931B
:1004F000B9011092B801D093B701A3ECB1E0E7E9DC
:10050000F1E080E0D81385C01092960180919601A9
:10051000CC0FC82BC093960180919501813009F0D2
:100520007CC0109295010E94E3006B017C018091D8
:1005300096018093BB008091BD019091BE01A09176
:10054000BF01B091C001892B8A2B8B2B99F00E949F
:10055000E3000091BD011091BE012091BF013091D7
:10056000C0016C197D098E099F0906171707280716
:100570003907E0F18091BC0083FDD9CF85EC8093F1
:10058000BC000E94E3006B017C018091BB018230C2
:1005900009F445C08091B9018F3F61F18091B901A3
:1005A000803241F18091B90125C08091BD019091C7
:1005B000BE01A091BF01B091C001892B8A2B8B2B6A
:1005C00009F48ACF0E94E3000091BD011091BE01A1
:1005D0002091BF013091C0016C197D098E099F09DE
:1005E000061717072807390708F076CF8091BC0156
:1005F0000E947A011092C2011092E4011092C1018E
:10060000DF91CF911F910F91FF90EF90DF90CF90EE
:1006100008959D9191938F5F75CF85EEB0CF8091B6
:10062000BD019091BE01A091BF01B091C001892B85
:100630008A2B8B2B09F4A9CF0E94E3000091BD0106
:100640001091BE012091BF013091C0016C197D094C
:100650008E099F09061717072807390708F095CF55
:10066000C5CF90E080E00895CF93DF93EC016E81D9
:100670007F8181E090E06115710511F090E080E0EC
:100680002C813D8182179307F9F0CE010E943A0137
:10069000FC018081803231F48E819F8101969F839D
:1006A0008E83E5CF6E817F81CE010E943A01FC01ED
:1006B00080818A3089F36E817F81CE010E943A0168
:1006C000FC018081893041F3DF91CF910895CF9370
:1006D000DF93EC010E9434036E817F81CB01019690
:1006E0009F838E83CE010E943A01FC018081DF91BD
:1006F000CF910895CF93DF93EC010E9434036E8174
:100700007F81CE010E943A01FC018081DF91CF916F
:100710000895CF93DF93FC01DB01718360835383E2
:100720004283358324831782168281E090E091878B
:10073000808741155105D9F021153105C1F0EA0135
:1007400088859985019799F0E901888599850197B0
:1007500071F0EA018E819F81E9016E817F8110979E
:1007600049F4860F971F9783868311861086DF9141
:10077000CF910895A130B10519F4861B970BF3CFE3
:10078000129751F4869F9001879F300D969F300DF0
:10079000112437832683E9CF0E94EE0B778366838B
:1007A000E4CF8F929F92AF92BF920F931F93CF93FC
:1007B000DF93CDB7DEB7A1970FB6F894DEBF0FBEBB
:1007C000CDBF19A2423008F44AE08E010F5D1F4FE1
:1007D000842E912CB12CA12CA50194010E947B0B9D
:1007E000E62FB901CA01EA3044F5E05DD801EE9385
:1007F0008D01232B242B252B79F790E080E0109797
:1008000069F0FD0101900020E9F73197AF014A1B23
:100810005B0BBD0183EC92E00E944C01A1960FB6E8
:10082000F894DEBF0FBECDBFDF91CF911F910F9126
:10083000BF90AF909F908F900895E95CD7CFFC0157
:1008400001900020E9F73197AF01481B590BBC011B
:1008500083EC92E00C944C010F931F93CF938C0187
:10086000C62F0E944A026C2F6460C8010E944A028F
:100870006C2F6B7FC8010E944A0283EC90E00197C5
:10088000F1F7CF911F910F9108950F931F93CF937D
:10089000DF938C01D62FC42F607F642B0E942C0421
:1008A00080E1D89FB00111246C2BC801DF91CF915A
:1008B0001F910F910C942C0440E061E083EC92E0D6
:1008C0000E9445048BE39FE10197F1F70895CF93D0
:1008D000DF93CDB7DEB728970FB6F894DEBF0FBE13
:1008E000CDBF98E0E6E0F1E0DE01119601900D92B7
:1008F0009A95E1F79091CB02981708F48FEF90E06A
:10090000880F991F21E030E02C0F3D1F820F931FAD
:10091000FC016081606840E083EC92E028960FB6AD
:10092000F894DEBF0FBECDBFDF91CF910C9445048C
:100930000E945C0481E00E94670486EE91E00E94C0
:100940001F0480E00E9467048AE492E00C941F0474
:1009500041E00E94450481E090E00895FC0180811F
:100960009181009711F00C94B80C0895EF92FF92CA
:100970000F931F93CF93DF93EC017B018A01888152
:100980009981009729F02A813B812417350788F443
:10099000B8016F5F7F4F0E94410D009791F09983DE
:1009A00088831B830A832C813D81232B11F4FC0156
:1009B00010821D830C83B701888199810E94120ED9
:1009C0000CC088819981009711F00E94B80C19829F
:1009D00018821D821C821B821A82CE01DF91CF9168
:1009E0001F910F91FF90EF90089585ED8093BC00CB
:1009F0008091BD019091BE01A091BF01B091C00155
:100A00000796A11DB11D23E0B695A79597958795EB
:100A10002A95D1F72091BC0024FD03C01092BB01A0
:100A200008954091BD015091BE016091BF01709148
:100A3000C001452B462B472B69F30097A105B10553
:100A400041F02AE22A95F1F700C00197A109B10906
:100A5000E1CF8091BC010C947A01CF92DF92EF92AA
:100A6000FF920F931F93CF93DF93CDB7DEB7CA5F8B
:100A7000D1090FB6F894DEBF0FBECDBF1A8219821E
:100A8000FE01339682E6DF011D928A95E9F70AE4BA
:100A900012E090E080E02CE2C22E21E0D22E7E0116
:100AA000B9ECEB0EF11CF801208130ED320F323041
:100AB00030F5E5E6F0E0EC0FFD1FE80FF91F2083AD
:100AC00001960F5F1F4FF801319720812111EBCF65
:100AD000BE016F5F7F4F86EE91E00E94120EC650FE
:100AE000DF4F0FB6F894DEBF0FBECDBFDF91CF91C1
:100AF0001F910F91FF90EF90DF90CF900895009796
:100B000011F125E630E02C0F3D1F820F931FDC0111
:100B10001C9242E050E070E060E0C9010E94480A87
:100B20007F936F93DF92CF92FF92EF920E94290EF4
:100B3000B701CE0101960E94070E0F900F900F9003
:100B40000F900F900F9041E050E0B801CE01019658
:100B50000E94190E90E080E0B4CFCF92DF92EF9226
:100B6000FF920F931F93CF93DF938C010E947A0320
:100B70008832C9F4C8010E946703C8010E94AD050C
:100B8000EC01C8010E946703893209F44FC0D0E02C
:100B9000C0E0CE01DF91CF911F910F91FF90EF90B8
:100BA000DF90CF900895C8010E947A03082E000CB0
:100BB000990BC0970A9758F7F12CE12C8AE0D82EB0
:100BC000C8010E943403F801268137818481958110
:100BD00028173907D1F0C8010E947A03082E000CAB
:100BE000990BC0970A9788F4DE9CE001DF9CD00D3A
:100BF0001124C8010E946703E82E880FFF08F0E364
:100C0000EF1AF108EC0EFD1EDBCF8AE090E00E94A7
:100C10001C0CEC011B821A821D821C8284E090E075
:100C200099838883FF82EE8219861886209709F4BB
:100C3000AECFC8010E943403F80126813781848138
:100C4000958128173907E1F0C8010E947A038A329A
:100C5000E9F5C8010E946703C8010E94AD056C0157
:100C60008AE090E00E941C0C7C019601AE0162E0DB
:100C700070E0C7010E948903E701209709F487CF3C
:100C8000C8010E943403F80126813781848195814F
:100C90002817390709F47DCFC8010E947A038B32E7
:100CA00041F5C8010E946703C8010E94AD057C019F
:100CB0008AE090E00E941C0C8C019701AE0170E06C
:100CC00060E0C8010E948903E80163CF8F32C1F65A
:100CD000C8010E946703C8010E94AD056C018AE04B
:100CE00090E00E941C0C7C019601AE0163E070E074
:100CF000C0CF8D3209F04DCFC8010E946703C801F3
:100D00000E94AD057C018AE090E00E941C0C8C01E1
:100D10009701AE0161E070E0D4CF1F920F920FB641
:100D20000F9211242F933F938F939F93AF93BF9371
:100D30008091AF029091B002A091B102B091B20245
:100D40003091AE0223E0230F2D3758F50196A11DF7
:100D5000B11D2093AE028093AF029093B002A09396
:100D6000B102B093B2028091B3029091B402A0910B
:100D7000B502B091B6020196A11DB11D8093B302D8
:100D80009093B402A093B502B093B602BF91AF9115
:100D90009F918F913F912F910F900FBE0F901F90B9
:100DA000189526E8230F0296A11DB11DD2CF1F92E0
:100DB0000F920FB60F9211242F933F934F935F938F
:100DC0006F937F938F939F93AF93BF93EF93FF9313
:100DD0008091B900887F803609F44AC0F0F58832E6
:100DE00009F4A5C018F5803109F499C0B8F4882336
:100DF00009F4F5C0883009F492C0FF91EF91BF91DA
:100E0000AF919F918F917F916F915F914F913F91A2
:100E10002F910F900FBE0F901F901895883109F4F5
:100E200086C0803251F78093B90114C0803409F430
:100E30009BC040F48033B9F38833F9F68093B9014D
:100E400085ECAEC0803509F483C0883509F494C0C0
:100E5000883499F60E94F504D0CF883909F48AC005
:100E600038F5883729F050F4883611F0803729F6A4
:100E700083E08093BB011092940155C0883809F437
:100E800079C0803919F0803809F0B7CF809194018A
:100E9000803208F06FC0E091940181E08E0F809362
:100EA00094018091BB00F0E0EC58FE4F80833BC082
:100EB000803B39F0D0F4803A09F477C0883A09F0E1
:100EC0009CCF84E08093BB01109273011092720159
:100ED000F0E0E0E009958091720181110FC081E09E
:100EE000809372011092520109C0803C09F4A8CF8E
:100EF000883C09F4A5CF883B09F07FCFE0917301CE
:100F000081E08E0F80937301F0E0EE5AFE4F8081F6
:100F10008093BB00909173018091720129C08091F0
:100F200096018093BB0085EC8093BC0066CF9091C6
:100F3000B8018091B701981758F5E091B80181E0A8
:100F40008E0F8093B801F0E0E956FE4F8081E9CF23
:100F5000E091B80181E08E0F8093B8018091BB00D1
:100F6000F0E0E956FE4F80839091B8018091B7017F
:100F70009817C8F285E8D8CFE091B80181E08E0FCC
:100F80008093B8018091BB00F0E0E956FE4F80836A
:100F90008091BA0181115ECF81E08093950184EA4E
:100FA0008093BC001092BB0128CF85EC8093BC00DD
:100FB0001092BB0180919401803230F4E091940151
:100FC000F0E0EC58FE4F10826091940170E084E7ED
:100FD00091E0F0E0E0E00995109294010ECF1092BC
:100FE000B90138CFE7EBF2E01382128288EE93E08A
:100FF000A0E0B0E084839583A683B78382E191E08B
:1010000091838083E3ECF2E01382128284E291E028
:101010009183808387E2848384E1818784E082876F
:1010200013860895CF93DF93CDB7DEB7C057D109AC
:101030000FB6F894DEBF0FBECDBF789484B5826042
:1010400084BD84B5816084BD85B5826085BD85B56C
:10105000816085BD80916E00816080936E001092EA
:101060008100809181008260809381008091810065
:1010700081608093810080918000816080938000F6
:101080008091B10084608093B1008091B000816054
:101090008093B00080917A00846080937A00809180
:1010A0007A00826080937A0080917A0081608093D8
:1010B0007A0080917A00806880937A001092C10053
:1010C0008091C80288608093C80274E0F72EF09285
:1010D000CB0262E370E080E090E00E940801609142
:1010E000CE0283EC92E00E944A0268EE73E080E058
:1010F00090E00E94080160E383EC92E00E942C04DF
:101100000BE416E4C8010197F1F760E383EC92E089
:101110000E942C04C8010197F1F760E383EC92E090
:101120000E942C0483E592E00197F1F760E283ECE2
:1011300092E00E942C046091C802606240E083EC5F
:1011400092E00E944504F092C90240E06CE083EC1A
:1011500092E00E9445040E945C0482E08093CA02EF
:1011600040E066E083EC92E00E94450440E062E0EB
:1011700083EC92E00E9445048BE39FE10197F1F735
:1011800088E08093CE0260E083EC92E00E944A0205
:1011900080E00E9467046091C902862F816080937D
:1011A000C902696040E083EC92E00E94450450E08F
:1011B00040E0FA01E656FF4F2491FA01EA57FF4F4B
:1011C00084918823C9F090E0880F991FFC01E859A9
:1011D000FF4F65917491FC01E458FF4FA591B491C4
:1011E0009FB7F894FB013081822F80958323808301
:1011F000EC912E2B2C939FBF4F5F5F4F4C305105CE
:10120000C1F6EAE4F2E08EEA92E011928E179F07AF
:10121000E1F726EE222E21E0322ECE0101967C014E
:101220003CE2A32E31E0B32E88248394912C02E07B
:1012300010E0F801E255FF4F8491F801E656FF4FA8
:10124000D490F801EA57FF4FC490C11012C0F801C2
:101250003397E930F10578F5E05DF64F0C94020C18
:10126000660969096C0972096F09750978097B09B2
:10127000360A81110E948C00EC2DF0E0EE0FFF1F6A
:10128000EE58FF4FA591B491EC91DE2201F30F5F70
:101290001F4F0C30110509F0CCCF61EE70E080E0FB
:1012A00090E00E94080180E090E0892B09F4BFCF14
:1012B0000E940000B9CF6FE271E08AE492E00E94E0
:1012C000070E0E942D050E949804E1CF61E371E0B2
:1012D000F4CF63E371E0F1CF65E371E0EECF67E354
:1012E00071E0EBCF69E371E0E8CF6BE371E0E5CF4C
:1012F0006DE371E0E2CFAD961FAE1EAEAD97AF9637
:101300001FAE1EAEAF97E1961FAE1EAEE197F10184
:1013100001900020E9F7AF01475E514066EE71E0B1
:10132000CE0185599F4F0E94B604A7961FAE1EAEF0
:10133000A797A9961FAE1EAEA997AB961FAE1EAE7D
:10134000AB97AD966EAD7FADAD976115710549F068
:10135000E1964EAD5FADE197CE018B599F4F0E9454
:10136000B6041A8219821C821B821E821D8250E0E2
:1013700040E06EE471E0C7010E94B604A7966EAD2E
:101380007FADA7976115710509F45CC0AB964EADB2
:101390005FADAB97C7010E94B60418861F82CE01CD
:1013A0008B599F4F0E94AE04C7010E94AD056C018E
:1013B000C7010E9434032F8138858D819E812817B3
:1013C000390719F0F60191868086C7010E94AE04A4
:1013D000CE0185599F4F0E94AE04F601808591850C
:1013E000892BE9F50E945C04F60146805780052CA4
:1013F000000C660877084AE0C301B20177FE0EC010
:1014000041E06DE283EC92E00E9445046627772775
:10141000CB0164197509860997094AE00E94D10336
:10142000F60187818F9386818F93BF92AF92FF924F
:10143000EF920E94290E0F900F900F900F900F9037
:101440000F9025CF89819A81009711F00E94B80CE6
:101450001A8219821E821D821C821B829ECF0E94CC
:101460005C048FE391E00E941F0411CF8AE492E0B4
:10147000FC0101900020E9F7CF018C5492408F3F8E
:10148000980709F40ACF865B9D4FFC01108219CFA3
:10149000B0E0A0E0EEE4FAE00C94A90B5C016B0173
:1014A0007A016115710519F0FB0191838083E114C4
:1014B000F10451F0C7010297839730F040E030E02B
:1014C00020E090E072C05E01E5012196F5011081F7
:1014D000812F90E00E945F0B892BA9F71D3201F547
:1014E0002196F501118101E0E114F10409F4DAC05B
:1014F000F0E1EF16F10409F082C0103359F488814D
:101500008F7D883509F076C0198122960260F0E15E
:10151000EF2EF12C812C912CA12C88E0B82E8CC0C0
:101520001B3221F4E5012296F501118100E0DCCFA8
:10153000EAE0EE16F10409F4BBC0F0E1EF16F104A5
:1015400009F06DC0E7CF78E0E72EF12C812C912CCB
:10155000A12C60E1B62E70C03FE9310F3A3128F47A
:1015600039EA332E80C021E09AC0302F3170C11487
:10157000D10431F0222309F12197F601D183C083F0
:1015800027FF21C060E070E080E090E8311104C0E6
:101590006FEF7FEF8FEF9FE722E230E03093D002D2
:1015A0002093CF02462F372F282F642F732F822F9F
:1015B000CDB7DEB7E1E10C94C50B01FF04C0229763
:1015C000F601D183C083332341F0909580957095C7
:1015D00061957F4F8F4F9F4FE5CF97FFE3CF82E21B
:1015E00090E09093D0028093CF026FEF7FEF8FEF68
:1015F0009FE7D8CF10E3E114F10409F4A4CF28E069
:10160000E216F10409F4A2CF0CF092CF812C912CB8
:10161000A12CE0E4BE2E82E0E816F10469F060E05F
:1016200070E080E090E897010F2C000C440B550B04
:101630000E947B0B49015A0120E060E070E0CB0181
:1016400027010F2C000C66087708FE0150ED352E9F
:10165000310E39E0331540F43FEB310F3A3108F0E9
:101660007BCF49EC342E310E3E141F040CF07DCF9D
:1016700027FD15C086169706A806B90678F0A301BF
:1016800092010E946B0B630D711D811D911D6130D4
:101690007105810520E8920708F465CF2FEF2196A8
:1016A0001081D3CF103309F42ACF2AE0E22EF12C97
:1016B0009CEC892E982CA82C9CE0B92EBDCF9111C2
:1016C0000C94680B803219F089508550C8F7089542
:1016D000992788270895DB018F939F930E949D0B84
:1016E000BF91AF91A29F800D911DA39F900DB29FBE
:1016F000900D11240895A1E21A2EAA1BBB1BFD0117
:101700000DC0AA1FBB1FEE1FFF1FA217B307E407E0
:10171000F50720F0A21BB30BE40BF50B661F771F38
:10172000881F991F1A9469F7609570958095909518
:101730009B01AC01BD01CF0108950E94DF0BA59F65
:10174000900DB49F900DA49F800D911D11240895BC
:101750002F923F924F925F926F927F928F929F92C1
:10176000AF92BF92CF92DF92EF92FF920F931F93AF
:10177000CF93DF93CDB7DEB7CA1BDB0B0FB6F89460
:10178000DEBF0FBECDBF09942A88398848885F84A0
:101790006E847D848C849B84AA84B984C884DF8011
:1017A000EE80FD800C811B81AA81B981CE0FD11DF5
:1017B0000FB6F894DEBF0FBECDBFED010895A29F16
:1017C000B001B39FC001A39F700D811D1124911D15
:1017D000B29F700D811D1124911D089597FB072E56
:1017E00016F4009407D077FD09D00E94080C07FC7E
:1017F00005D03EF4909581959F4F08957095619521
:101800007F4F0895EE0FFF1F0590F491E02D09948E
:10181000AA1BBB1B51E107C0AA1FBB1FA617B70716
:1018200010F0A61BB70B881F991F5A95A9F7809532
:101830009095BC01CD0108950F931F93CF93DF9333
:101840008230910510F482E090E0E091D302F091B3
:10185000D40230E020E0B0E0A0E0309799F4211508
:10186000310509F44AC0281B390B24303105D8F55D
:101870008A819B816115710589F1FB0193838283C4
:10188000FE0111C04081518102811381481759071F
:10189000E0F04817590799F4109761F012960C93ED
:1018A000129713961C933296CF01DF91CF911F911F
:1018B0000F9108950093D3021093D402F4CF211511
:1018C000310551F04217530738F0A901DB019A01A5
:1018D000BD01DF01F801C1CFEF01F9CF9093D40230
:1018E0008093D302CDCFFE01E20FF31F819391933A
:1018F0002250310939832883D7CF2091D1023091EA
:10190000D202232B41F42091020130910301309344
:10191000D2022093D10220910001309101012115C2
:10192000310541F42DB73EB74091040150910501B6
:10193000241B350BE091D102F091D202E217F3079C
:10194000A0F42E1B3F0B2817390778F0AC014E5F2F
:101950005F4F2417350748F04E0F5F1F5093D20298
:101960004093D102819391939FCFF0E0E0E09CCF30
:10197000CF93DF930097E9F0FC0132971382128234
:10198000A091D302B091D402ED0130E020E0109795
:10199000A1F420813181820F931F2091D1023091D7
:1019A000D2022817390709F061C0F093D202E09300
:1019B000D102DF91CF910895EA01CE17DF07E8F554
:1019C0004A815B819E0141155105B1F7E901FB8315
:1019D000EA8349915991C40FD51FEC17FD0761F4B3
:1019E000808191810296840F951FE90199838883F4
:1019F000828193819B838A83F0E0E0E012968D914F
:101A00009C9113970097B9F52D913C911197CD01B9
:101A10000296820F931F2091D1023091D202281793
:101A2000390739F6309751F51092D4021092D3024B
:101A3000B093D202A093D102BCCFD383C2834081A2
:101A40005181840F951FC817D90761F44E5F5F4F0E
:101A500088819981480F591F518340838A819B81D6
:101A6000938382832115310509F0B0CFF093D4021E
:101A7000E093D3029ECFFD01DC01C0CF138212821E
:101A8000D7CFB0E0A0E0E7E4FDE00C94AA0B8C0116
:101A9000009751F4CB010E941C0C8C01C801CDB7FA
:101AA000DEB7E0E10C94C60BFC01E60FF71F9C01CA
:101AB00022503109E217F30708F49DC0D901CD91F6
:101AC000DC911197C617D70798F0C530D10530F3D0
:101AD000CE0104978617970708F3C61BD70B2297EA
:101AE000C193D1936D937C93CF010E94B80CD6CF54
:101AF0005B01AC1ABD0A4C018C0E9D1EA091D30255
:101B0000B091D402512C412CF12CE12C109731F5DD
:101B10008091D1029091D2028815990509F05CC09C
:101B20004616570608F058C08091000190910101B7
:101B3000009741F48DB79EB7409104015091050183
:101B4000841B950BE817F90708F055C0F093D202F3
:101B5000E093D102F90171836083A0CF8D919C91B4
:101B6000119712966C90129713967C901397A81564
:101B7000B90559F56C0142E0C40ED11CCA14DB044E
:101B800020F1AC014A195B09DA011296159780F031
:101B90006282738251834083D9016D937C93E114F7
:101BA000F10471F0D7011396FC93EE93129776CF60
:101BB00022968C0F9D1FF90191838083F301EFCF53
:101BC000F093D402E093D30269CF4816590608F483
:101BD0002C017D01D3019ACFCB010E941C0C7C010A
:101BE000009749F0AE01B8010E94FE0DC8010E94A5
:101BF000B80C870153CF10E000E050CFFB01DC01AF
:101C000002C001900D9241505040D8F70895FB0159
:101C1000DC010D900020E9F7119701900D92002052
:101C2000E1F70895FB01DC0101900D920020E1F73E
:101C30000895FB01DC010D900020E9F71197415058
:101C4000504028F0019000200D92C9F708951C9291
:101C50000895AEE0B0E0EFE2FEE00C94B60B0D8923
:101C60001E8986E08C831A8309838FEF9FE79E830A
:101C70008D83AE01475E5F4F6F89788DCE010196EF
:101C80000E944C0E2F813885020F131FF80110821D
:101C90002E96E4E00C94D20BABE0B0E0E2E5FEE07F
:101CA0000C94A80B7C013B018A01FC01178216826F
:101CB000838181FFC8C1CE0101965C01F701938148
:101CC000F30193FD859193FF81913F01882309F4EE
:101CD00053C1853239F493FD859193FF81913F0182
:101CE000853229F4B70190E00E943C10E7CF912C97
:101CF000212C312CFFE1F31538F08B3211F190F4E7
:101D0000803209F1833229F137FC3CC020ED280FE5
:101D10002A3050F536FE20C08AE0989E200D11240E
:101D2000922E06C08D3291F0803371F7689430F8AE
:101D3000F30193FD859193FF81913F018111DACFEA
:101D400021C0689431F8689432F8F2CF689433F87F
:101D5000EFCF689434F8ECCFEAE02E9E200D1124EA
:101D6000222E689435F8E4CF8E3229F436FC04C173
:101D7000689436F8DDCF8C3619F4689437F8D8CFEC
:101D80008836B1F2982F9F7D95549330E0F08336DA
:101D9000A1F18337C1F1833509F063C02801F2E076
:101DA0004F0E511CF801C080D180692D70E036FCC7
:101DB00002C06FEF7FEFC6010E9426104C016894AD
:101DC00037F882010AC00C5F1F4FFFE3F9838824B4
:101DD0008394912C6501E89437F833FE2DC0522C82
:101DE0008114910471F5552009F468CFB70180E2A0
:101DF00090E00E943C105A94F6CFF80180818983CC
:101E00000E5F1F4FE4CF2801F2E04F0E511CF80186
:101E1000C080D180692D70E036FC02C06FEF7FEF8B
:101E2000C6010E9431104C018201D5CFB70180E27A
:101E300090E00E943C102A942814190409F0B0F78D
:101E4000CECFF60137FC859137FE81916F01B70146
:101E500090E00E943C1051105A94F1E08F1A9108C2
:101E6000BFCF843619F0893609F077C0F80137FE04
:101E70006BC060817181828193810C5F1F4FF32D54
:101E8000FF763F2E97FF09C09095809570956195DC
:101E90007F4F8F4F9F4F689437F82AE030E0A501BD
:101EA0000E946C10C82ECA188C2C432C36FE0CC015
:101EB000E89440F8C91440F434FE05C032FC03C075
:101EC000F32DFE7E4F2E892C44FE95C0FE01EC0DB5
:101ED000F11D8081803309F087C0242D297E422E98
:101EE000842D8870582E43FC95C040FE8FC09C2CDA
:101EF000821418F42C0C922C981844FE91C0B7014F
:101F000080E390E00E943C1042FE09C088E790E028
:101F100041FE02C088E590E0B7010E943C10C91460
:101F200008F48AC0CA94D12C9FEFC91AD90ACA0CE6
:101F3000DB1CF60182916F01B70190E00E943C101A
:101F4000AC14BD04B1F74FCF60817181072E000C36
:101F5000880B990B0E5F1F4F92CFD32CE894D4F8C7
:101F60002AE030E0853739F1232D297FD22E8F36B4
:101F700001F148F48835A9F0F701868197812B9605
:101F8000E2E10C94C40B803749F08837A9F7D4FEFE
:101F900002C06894D2F820E130E00DC06894D4F813
:101FA000F6CF34FE03C0822F8660D82E20E132E0C7
:101FB00002C028E030E0F801D7FE0FC060817181D7
:101FC000828193810C5F1F4FA5010E946C10C82E67
:101FD000CA183D2CE89437F867CF6081718190E092
:101FE00080E00E5F1F4FF0CF42FC02C0839478CF99
:101FF0008394839475CF842D867809F471CFF6CFBE
:10200000B70180E290E00E943C1083948214C0F3F8
:10201000512C73CF522C5818821408F46ECFF8CF7D
:10202000842D867809F47BCF8BE241FE80E247FC69
:102030008DE2B70190E071CFB70180E390E00E949C
:102040003C109A946CCF8FEF9FEF99CFFC010590D5
:10205000615070400110D8F7809590958E0F9F1FAA
:102060000895FC016150704001900110D8F78095EF
:1020700090958E0F9F1F08950F931F93CF93DF931B
:10208000182F092FEB018B8181FD09C01FEF0FEF86
:10209000812F902FDF91CF911F910F91089582FF93
:1020A00014C02E813F818C819D81281739073CF413
:1020B000E881F981CF0101969983888310838E810D
:1020C0009F8101969F838E83E3CFE885F985812FD9
:1020D0000995892BA1F3DACFFA01AA27283051F10B
:1020E000203181F1E8946F936E7F6E5F7F4F8F4F49
:1020F0009F4FAF4FB1E03ED0B4E03CD0670F781FA8
:10210000891F9A1FA11D680F791F8A1F911DA11D8C
:102110006A0F711D811D911DA11D20D009F46894C5
:102120003F912AE0269F11243019305D3193DEF66D
:10213000CF010895462F4770405D4193B3E00FD023
:10214000C9F7F6CF462F4F70405D4A3318F0495D0E
:1021500031FD4052419302D0A9F7EACFB4E0A695F1
:102160009795879577956795BA95C9F70097610513
:10217000710508959B01AC010A2E06945795479569
:1021800037952795BA95C9F7620F731F841F951F5E
:10219000A01D0895F894FFCF0000D5028000000034
:1021A000400014005400000000001B02EE01310347
:1021B000E001E701E401E10100000000A8044C0196
:1021C0003103790125640030003100280029002BFB
:1021D000002D0078002F00696E76616C69642066BE
:0821E0006F726D6174210000B3
:107E0000112484B714BE81FFF0D085E080938100F7
:107E100082E08093C00088E18093C10086E0809377
:107E2000C20080E18093C4008EE0C9D0259A86E02C
:107E300020E33CEF91E0309385002093840096BBD3
:107E4000B09BFECF1D9AA8958150A9F7CC24DD24C4
:107E500088248394B5E0AB2EA1E19A2EF3E0BF2EE7
:107E6000A2D0813461F49FD0082FAFD0023811F036
:107E7000013811F484E001C083E08DD089C08234E0
:107E800011F484E103C0853419F485E0A6D080C0E4
:107E9000853579F488D0E82EFF2485D0082F10E0AE
:107EA000102F00270E291F29000F111F8ED06801E7
:107EB0006FC0863521F484E090D080E0DECF843638
:107EC00009F040C070D06FD0082F6DD080E0C81688
:107ED00080E7D80618F4F601B7BEE895C0E0D1E017
:107EE00062D089930C17E1F7F0E0CF16F0E7DF06D8
:107EF00018F0F601B7BEE89568D007B600FCFDCFD4
:107F0000A601A0E0B1E02C9130E011968C91119780
:107F100090E0982F8827822B932B1296FA010C0160
:107F200087BEE89511244E5F5F4FF1E0A038BF0790
:107F300051F7F601A7BEE89507B600FCFDCF97BE46
:107F4000E89526C08437B1F42ED02DD0F82E2BD052
:107F50003CD0F601EF2C8F010F5F1F4F84911BD097
:107F6000EA94F801C1F70894C11CD11CFA94CF0C13
:107F7000D11C0EC0853739F428D08EE10CD085E9AC
:107F80000AD08FE07ACF813511F488E018D01DD067
:107F900080E101D065CF982F8091C00085FFFCCF94
:107FA0009093C60008958091C00087FFFCCF809118
:107FB000C00084FD01C0A8958091C6000895E0E648
:107FC000F0E098E1908380830895EDDF803219F02E
:107FD00088E0F5DFFFCF84E1DECF1F93182FE3DFCA
:107FE0001150E9F7F2DF1F91089580E0E8DFEE27F6
:047FF000FF270994CA
:027FFE00040479
:00000001FF
